{
  "contractName": "PodAccessLogger",
  "abi": [
    {
      "anonymous": false,
      "inputs": [
        {
          "indexed": true,
          "internalType": "address",
          "name": "server",
          "type": "address"
        },
        {
          "indexed": false,
          "internalType": "string",
          "name": "podUrl",
          "type": "string"
        },
        {
          "indexed": false,
          "internalType": "uint256",
          "name": "timestamp",
          "type": "uint256"
        }
      ],
      "name": "PodAccessRecorded",
      "type": "event"
    },
    {
      "inputs": [
        {
          "internalType": "string",
          "name": "",
          "type": "string"
        },
        {
          "internalType": "uint256",
          "name": "",
          "type": "uint256"
        }
      ],
      "name": "podAccesses",
      "outputs": [
        {
          "internalType": "address",
          "name": "server",
          "type": "address"
        },
        {
          "internalType": "uint256",
          "name": "timestamp",
          "type": "uint256"
        }
      ],
      "stateMutability": "view",
      "type": "function"
    },
    {
      "inputs": [
        {
          "internalType": "address",
          "name": "",
          "type": "address"
        },
        {
          "internalType": "uint256",
          "name": "",
          "type": "uint256"
        }
      ],
      "name": "userPods",
      "outputs": [
        {
          "internalType": "string",
          "name": "",
          "type": "string"
        }
      ],
      "stateMutability": "view",
      "type": "function"
    },
    {
      "inputs": [
        {
          "internalType": "string",
          "name": "podUrl",
          "type": "string"
        }
      ],
      "name": "recordAccess",
      "outputs": [],
      "stateMutability": "nonpayable",
      "type": "function"
    },
    {
      "inputs": [
        {
          "internalType": "address",
          "name": "user",
          "type": "address"
        },
        {
          "internalType": "string",
          "name": "podUrl",
          "type": "string"
        }
      ],
      "name": "associatePod",
      "outputs": [],
      "stateMutability": "nonpayable",
      "type": "function"
    },
    {
      "inputs": [
        {
          "internalType": "string",
          "name": "podUrl",
          "type": "string"
        }
      ],
      "name": "podHasOwner",
      "outputs": [
        {
          "internalType": "bool",
          "name": "",
          "type": "bool"
        }
      ],
      "stateMutability": "view",
      "type": "function"
    },
    {
      "inputs": [],
      "name": "getAccesses",
      "outputs": [
        {
          "components": [
            {
              "internalType": "address",
              "name": "server",
              "type": "address"
            },
            {
              "internalType": "uint256",
              "name": "timestamp",
              "type": "uint256"
            }
          ],
          "internalType": "struct PodAccessLogger.Access[]",
          "name": "",
          "type": "tuple[]"
        }
      ],
      "stateMutability": "view",
      "type": "function"
    }
  ],
  "bytecode": "0x608060405234801561000f575f80fd5b5061130f8061001d5f395ff3fe608060405234801561000f575f80fd5b5060043610610060575f3560e01c806314267bf21461006457806331c3ba13146100945780639c7ae8f3146100c4578063c6312b39146100e0578063d2236928146100fe578063e1d3b2761461011a575b5f80fd5b61007e60048036038101906100799190610921565b61014b565b60405161008b9190610982565b60405180910390f35b6100ae60048036038101906100a99190610a28565b610230565b6040516100bb9190610ae0565b60405180910390f35b6100de60048036038101906100d99190610b00565b6102e1565b005b6100e861039b565b6040516100f59190610c4d565b60405180910390f35b61011860048036038101906101139190610921565b6105dd565b005b610134600480360381019061012f9190610c6d565b610736565b604051610142929190610ce5565b60405180910390f35b5f8060015f3373ffffffffffffffffffffffffffffffffffffffff1673ffffffffffffffffffffffffffffffffffffffff1681526020019081526020015f2090505f5b818054905081101561022557836040516020016101ab9190610d46565b604051602081830303815290604052805190602001208282815481106101d4576101d3610d5c565b5b905f5260205f20016040516020016101ec9190610e78565b60405160208183030381529060405280519060200120036102125760019250505061022b565b808061021d90610ebb565b91505061018e565b505f9150505b919050565b6001602052815f5260405f208181548110610249575f80fd5b905f5260205f20015f9150915050805461026290610db6565b80601f016020809104026020016040519081016040528092919081815260200182805461028e90610db6565b80156102d95780601f106102b0576101008083540402835291602001916102d9565b820191905f5260205f20905b8154815290600101906020018083116102bc57829003601f168201915b505050505081565b6102ea8161014b565b1561032a576040517f08c379a000000000000000000000000000000000000000000000000000000000815260040161032190610f72565b60405180910390fd5b60015f8373ffffffffffffffffffffffffffffffffffffffff1673ffffffffffffffffffffffffffffffffffffffff1681526020019081526020015f2081908060018154018082558091505060019003905f5260205f20015f909190919091509081610396919061111b565b505050565b60605f60015f3373ffffffffffffffffffffffffffffffffffffffff1673ffffffffffffffffffffffffffffffffffffffff1681526020019081526020015f2090505f805b8280549050811015610447575f838281548110610400576103ff610d5c565b5b905f5260205f20016040516104159190610e78565b9081526020016040518091039020805490508261043291906111ea565b9150808061043f90610ebb565b9150506103e0565b505f8167ffffffffffffffff811115610463576104626107fd565b5b60405190808252806020026020018201604052801561049c57816020015b6104896107a6565b8152602001906001900390816104815790505b5090505f805b84805490508110156105d2575f808683815481106104c3576104c2610d5c565b5b905f5260205f20016040516104d89190610e78565b908152602001604051809103902090505f5b81805490508110156105bd5781818154811061050957610508610d5c565b5b905f5260205f2090600202016040518060400160405290815f82015f9054906101000a900473ffffffffffffffffffffffffffffffffffffffff1673ffffffffffffffffffffffffffffffffffffffff1673ffffffffffffffffffffffffffffffffffffffff16815260200160018201548152505085858151811061059157610590610d5c565b5b602002602001018190525083806105a790610ebb565b94505080806105b590610ebb565b9150506104ea565b505080806105ca90610ebb565b9150506104a2565b508194505050505090565b6105e68161014b565b610625576040517f08c379a000000000000000000000000000000000000000000000000000000000815260040161061c9061128d565b60405180910390fd5b5f816040516106349190610d46565b908152602001604051809103902060405180604001604052803373ffffffffffffffffffffffffffffffffffffffff16815260200142815250908060018154018082558091505060019003905f5260205f2090600202015f909190919091505f820151815f015f6101000a81548173ffffffffffffffffffffffffffffffffffffffff021916908373ffffffffffffffffffffffffffffffffffffffff1602179055506020820151816001015550503373ffffffffffffffffffffffffffffffffffffffff167f0bce609b00d5f838e324ff80427e09c76241c200b23bfd9d3f0c2c797e019a83824260405161072b9291906112ab565b60405180910390a250565b5f828051602081018201805184825260208301602085012081835280955050505050508181548110610766575f80fd5b905f5260205f2090600202015f9150915050805f015f9054906101000a900473ffffffffffffffffffffffffffffffffffffffff16908060010154905082565b60405180604001604052805f73ffffffffffffffffffffffffffffffffffffffff1681526020015f81525090565b5f604051905090565b5f80fd5b5f80fd5b5f80fd5b5f80fd5b5f601f19601f8301169050919050565b7f4e487b71000000000000000000000000000000000000000000000000000000005f52604160045260245ffd5b610833826107ed565b810181811067ffffffffffffffff82111715610852576108516107fd565b5b80604052505050565b5f6108646107d4565b9050610870828261082a565b919050565b5f67ffffffffffffffff82111561088f5761088e6107fd565b5b610898826107ed565b9050602081019050919050565b828183375f83830152505050565b5f6108c56108c084610875565b61085b565b9050828152602081018484840111156108e1576108e06107e9565b5b6108ec8482856108a5565b509392505050565b5f82601f830112610908576109076107e5565b5b81356109188482602086016108b3565b91505092915050565b5f60208284031215610936576109356107dd565b5b5f82013567ffffffffffffffff811115610953576109526107e1565b5b61095f848285016108f4565b91505092915050565b5f8115159050919050565b61097c81610968565b82525050565b5f6020820190506109955f830184610973565b92915050565b5f73ffffffffffffffffffffffffffffffffffffffff82169050919050565b5f6109c48261099b565b9050919050565b6109d4816109ba565b81146109de575f80fd5b50565b5f813590506109ef816109cb565b92915050565b5f819050919050565b610a07816109f5565b8114610a11575f80fd5b50565b5f81359050610a22816109fe565b92915050565b5f8060408385031215610a3e57610a3d6107dd565b5b5f610a4b858286016109e1565b9250506020610a5c85828601610a14565b9150509250929050565b5f81519050919050565b5f82825260208201905092915050565b5f5b83811015610a9d578082015181840152602081019050610a82565b5f8484015250505050565b5f610ab282610a66565b610abc8185610a70565b9350610acc818560208601610a80565b610ad5816107ed565b840191505092915050565b5f6020820190508181035f830152610af88184610aa8565b905092915050565b5f8060408385031215610b1657610b156107dd565b5b5f610b23858286016109e1565b925050602083013567ffffffffffffffff811115610b4457610b436107e1565b5b610b50858286016108f4565b9150509250929050565b5f81519050919050565b5f82825260208201905092915050565b5f819050602082019050919050565b610b8c816109ba565b82525050565b610b9b816109f5565b82525050565b604082015f820151610bb55f850182610b83565b506020820151610bc86020850182610b92565b50505050565b5f610bd98383610ba1565b60408301905092915050565b5f602082019050919050565b5f610bfb82610b5a565b610c058185610b64565b9350610c1083610b74565b805f5b83811015610c40578151610c278882610bce565b9750610c3283610be5565b925050600181019050610c13565b5085935050505092915050565b5f6020820190508181035f830152610c658184610bf1565b905092915050565b5f8060408385031215610c8357610c826107dd565b5b5f83013567ffffffffffffffff811115610ca057610c9f6107e1565b5b610cac858286016108f4565b9250506020610cbd85828601610a14565b9150509250929050565b610cd0816109ba565b82525050565b610cdf816109f5565b82525050565b5f604082019050610cf85f830185610cc7565b610d056020830184610cd6565b9392505050565b5f81905092915050565b5f610d2082610a66565b610d2a8185610d0c565b9350610d3a818560208601610a80565b80840191505092915050565b5f610d518284610d16565b915081905092915050565b7f4e487b71000000000000000000000000000000000000000000000000000000005f52603260045260245ffd5b7f4e487b71000000000000000000000000000000000000000000000000000000005f52602260045260245ffd5b5f6002820490506001821680610dcd57607f821691505b602082108103610de057610ddf610d89565b5b50919050565b5f819050815f5260205f209050919050565b5f8154610e0481610db6565b610e0e8186610d0c565b9450600182165f8114610e285760018114610e3d57610e6f565b60ff1983168652811515820286019350610e6f565b610e4685610de6565b5f5b83811015610e6757815481890152600182019150602081019050610e48565b838801955050505b50505092915050565b5f610e838284610df8565b915081905092915050565b7f4e487b71000000000000000000000000000000000000000000000000000000005f52601160045260245ffd5b5f610ec5826109f5565b91507fffffffffffffffffffffffffffffffffffffffffffffffffffffffffffffffff8203610ef757610ef6610e8e565b5b600182019050919050565b7f504f4420707265636564656e74656d656e7465206173736f636961746f2061645f8201527f20756e207574656e74652e000000000000000000000000000000000000000000602082015250565b5f610f5c602b83610a70565b9150610f6782610f02565b604082019050919050565b5f6020820190508181035f830152610f8981610f50565b9050919050565b5f6020601f8301049050919050565b5f82821b905092915050565b5f60088302610fda7fffffffffffffffffffffffffffffffffffffffffffffffffffffffffffffffff82610f9f565b610fe48683610f9f565b95508019841693508086168417925050509392505050565b5f819050919050565b5f61101f61101a611015846109f5565b610ffc565b6109f5565b9050919050565b5f819050919050565b61103883611005565b61104c61104482611026565b848454610fab565b825550505050565b5f90565b611060611054565b61106b81848461102f565b505050565b5b8181101561108e576110835f82611058565b600181019050611071565b5050565b601f8211156110d3576110a481610de6565b6110ad84610f90565b810160208510156110bc578190505b6110d06110c885610f90565b830182611070565b50505b505050565b5f82821c905092915050565b5f6110f35f19846008026110d8565b1980831691505092915050565b5f61110b83836110e4565b9150826002028217905092915050565b61112482610a66565b67ffffffffffffffff81111561113d5761113c6107fd565b5b6111478254610db6565b611152828285611092565b5f60209050601f831160018114611183575f8415611171578287015190505b61117b8582611100565b8655506111e2565b601f19841661119186610de6565b5f5b828110156111b857848901518255600182019150602085019450602081019050611193565b868310156111d557848901516111d1601f8916826110e4565b8355505b6001600288020188555050505b505050505050565b5f6111f4826109f5565b91506111ff836109f5565b925082820190508082111561121757611216610e8e565b5b92915050565b7f504f44206e6f6e206173736f636961746f2061206e657373756e207574656e745f8201527f652e000000000000000000000000000000000000000000000000000000000000602082015250565b5f611277602283610a70565b91506112828261121d565b604082019050919050565b5f6020820190508181035f8301526112a48161126b565b9050919050565b5f6040820190508181035f8301526112c38185610aa8565b90506112d26020830184610cd6565b939250505056fea26469706673582212204ca4d0f5831306fec085716e51f3a89a71d754bb88bf64e8a928444d8b28b21d64736f6c63430008150033",
  "immutableReferences": {},
  "source": "// SPDX-License-Identifier: MIT\npragma solidity ^0.8.0;\n\ncontract PodAccessLogger {\n    // Evento emesso quando il FS accede a un POD\n    event PodAccessRecorded(address indexed server, string podUrl, uint256 timestamp);\n\n    // Struttura per memorizzare gli accessi\n    struct Access {\n        address server; // Chi ha effettuato l'accesso\n        uint256 timestamp; // Quando  stato effettuato\n    }\n\n    // Mappatura per memorizzare gli accessi per ogni POD\n    mapping(string => Access[]) public podAccesses;\n\n    // Mappatura per associare un utente ai propri POD\n    mapping(address => string[]) public userPods;\n\n    // Metodo per registrare un accesso al POD\n    function recordAccess(string memory podUrl) public {\n        // Verifica che il POD sia associato a un utente\n        require(podHasOwner(podUrl), \"POD non associato a nessun utente.\");\n\n        // Aggiungi l'accesso alla lista degli accessi per il POD\n        podAccesses[podUrl].push(Access({\n            server: msg.sender,\n            timestamp: block.timestamp\n        }));\n\n        // Emetti l'evento di accesso\n        emit PodAccessRecorded(msg.sender, podUrl, block.timestamp);\n    }\n\n    // Metodo per associare un POD a un utente (da fare solo la prima volta)\n    function associatePod(address user, string memory podUrl) public {\n        require(!podHasOwner(podUrl), \"POD precedentemente associato ad un utente.\");\n        userPods[user].push(podUrl);\n    }\n\n    // Metodo per verificare se un POD ha un proprietario\n    function podHasOwner(string memory podUrl) public view returns (bool) {\n        string[] storage pods = userPods[msg.sender];\n        for (uint i = 0; i < pods.length; i++) {\n            if (keccak256(abi.encodePacked(pods[i])) == keccak256(abi.encodePacked(podUrl))) {\n                return true;\n            }\n        }\n        return false;\n    }\n\n    function getAccesses() public view returns (Access[] memory) {\n        string[] storage pods = userPods[msg.sender]; // Recupera i POD dell'utente\n        uint256 totalAccesses = 0;\n\n        // Calcola il numero totale di accessi\n        for (uint i = 0; i < pods.length; i++) {\n            totalAccesses += podAccesses[pods[i]].length;\n        }\n\n        // Crea un array di dimensioni pre-calcolate\n        Access[] memory accesses = new Access[](totalAccesses);\n        uint256 index = 0;\n\n        // Popola l'array con i dati degli accessi\n        for (uint i = 0; i < pods.length; i++) {\n            Access[] storage podAccess = podAccesses[pods[i]];\n            for (uint j = 0; j < podAccess.length; j++) {\n                accesses[index] = podAccess[j];\n                index++;\n            }\n        }\n\n        return accesses;\n    }\n\n}\n",
  "sourcePath": "/Users/gerardodonnarumma/Desktop/tesi_smart_contract/contracts/PodAccesLogger.sol",
  "compiler": {
    "name": "solc",
    "version": "0.8.21+commit.d9974bed.Emscripten.clang"
  },
  "schemaVersion": "3.4.16",
  "updatedAt": "2024-05-09T21:46:40.215Z",
  "devdoc": {
    "kind": "dev",
    "methods": {},
    "version": 1
  },
  "userdoc": {
    "kind": "user",
    "methods": {},
    "version": 1
  }
}